:020000040800F2
:1000000000000220A1430008A54300087543000832
:10001000A9430008AD430008B143000800000000F8
:10002000000000000000000000000000B5430008D0
:10003000B943000800000000BD430008C1430008A8
:10004000C5430008C9430008CD430008D143000858
:10005000D5430008D9430008DD430008E143000808
:10006000E5430008E9430008ED430008F1430008B8
:10007000F5430008F9430008FD4300080144000867
:1000800005440008094400080D4400081144000814
:1000900015440008194400081D44000821440008C4
:1000A00025440008294400082D4400083144000874
:1000B00035440008394400083D4400084144000824
:1000C00045440008494400084D44000851440008D4
:1000D00055440008594400085D4400086144000884
:1000E00065440008694400086D4400087144000834
:1000F00075440008794400087D44000881440008E4
:1001000085440008894400088D4400089144000893
:1001100095440008994400089D440008A144000843
:10012000A5440008A9440008AD440008B1440008F3
:10013000B5440008B9440008BD440008C1440008A3
:10014000C5440008C9440008CD440008D144000853
:10015000D5440008D9440008DD440008E144000803
:10016000E5440008E9440008ED440008F1440008B3
:10017000F5440008F9440008FD4400080145000862
:100180000545000809450008DD0800083009000899
:100190000700000024300008F00800081D090008CE
:1001A00008000000DD0800089C0100082430000859
:1001B0002C2F00089C01000824300008541C000863
:1001C0005C0F0008E81D0008AC2800082C27000878
:1001D000281C0008541E000830090008FCFFFFFF1F
:1001E0004C0F0008C01D000830090008FFFFFFFF8A
:1001F0005C0F0008C01D0008F0080008DD080008BA
:10020000500700080000000008010010F008000876
:10021000DD08000850070008000000000C01001075
:10022000F0080008DD080008EC0C0008140F0008B6
:10023000301E0008CC190008080D0008F00800085E
:10024000DD080008140F0008E81D0008541C000811
:100250004C270008FC280008900A0008180000003D
:10026000300900086200000024300008081C000863
:10027000F0080008300900080A000000FC28000807
:10028000900A000814000000300900086400000013
:1002900024300008F0080008300900086800000059
:1002A00024300008F0080008DD08000800260008D7
:1002B0002C2700086425000840020008F008000808
:1002C000DD0800082C2700082C27000864250008FA
:1002D00040020008F0080008DD080008EC0C0008E7
:1002E000541C0008140F0008301E000830090008D4
:1002F0000A000000FC280008900A00081000000016
:10030000A8020008780A000808000000C0020008DF
:100310002C2F0008080D0008F00800081D0900082F
:10032000140100101D090008180100101D09000823
:100330003C0100101D09000844010010DD08000800
:1003400030090008B23F000834170008D02F000819
:1003500050180008DD080008000F0008C01D000844
:10036000F0080008DD08000814100008900F0008CD
:10037000301E00086C27000854030008F00800082D
:10038000DD0800083C0F0008E81D0008C829000827
:10039000300900086F40000888120008F0080008C3
:1003A000DD0800083C0F0008E81D000830090008BF
:1003B0008840000888120008F0080008DD080008DE
:1003C000D4280008300900084340000888120008BB
:1003D000F0080008DD080008041B00081C030008E2
:1003E000E81D0008281C00087029000830090008D2
:1003F0002B40000888120008F0080008DD080008FB
:10040000681B0008541C000810170008D02F0008B3
:1004100010170008AC280008E40F0008AC1B000807
:10042000F0080008DD0800087C0F0008300900080B
:100430005E000000C0150008500700080100000021
:1004400008010010F0080008DD0800089C260008DC
:10045000541C0008AC1B00080C1E0008140F0008F8
:10046000E81D0008B8120008900A000858000000B3
:10047000281C0008140F0008E81D0008340C0008B0
:10048000081C0008B01A0008140F0008E81D000836
:10049000340C0008C425000854250008E81D000895
:1004A0009C260008900A0008100000003C27000865
:1004B00054250008C01D0008681B0008780A0008C1
:1004C0008CFFFFFF681B0008F0080008DD0800082B
:1004D000CC0E0008A0130008900F00083811000887
:1004E000EC090008F0080008DD080008681B000897
:1004F000541C0008E4260008AC1B0008E81D000896
:1005000064030008F0080008DD080008AC1B0008C0
:100510002C2700088C1B00085C0C0008681B0008D6
:10052000281C0008AC1B00085C0C0008681B0008B5
:10053000F0080008DD080008041B00082C03000870
:10054000301E0008F0080008DD080008041B000841
:100550002C030008E81D0008D42800083009000812
:100560002B40000888120008F0080008DD08000889
:10057000CC040008900A00083C0000003C0F000872
:10058000E81D000840290008900A00081400000037
:100590007411000864030008780A00080C000000C9
:1005A00074110008780E0008D4030008780A0008C7
:1005B000C0FFFFFF900F0008181400085425000822
:1005C000E81D00089C260008900A000810000000A2
:1005D000141F0008780A00080C000000081C00081E
:1005E000441F0008D4030008780A000884FFFFFFB6
:1005F000DD080008B81E0008B40C0008D00C000884
:10060000240400086C0500083C0F0008E81D0008E1
:10061000C8290008900A00083800000030090008C6
:1006200034010010E81D0008900A000824000000B2
:100630003009000834010010E81D000834170008D4
:10064000D02F0008140F0008E81D0008702D0008C6
:1006500030090008100000002430000800310008B4
:10066000780A000898FFFFFFDD080008900F0008D7
:10067000D428000870100008F0080008DD08000801
:10068000500700080000000028010010F0080008D2
:100690001D09000828010010DD080008F4290008E1
:1006A000900A0008080000007C2A0008F0080008F2
:1006B000DD080008F4290008900A0008080000007E
:1006C00024250008F0080008DD08000800310008B3
:1006D00030090008B00D000834170008D02F0008BA
:1006E00030090008240E000834170008D02F000835
:1006F00030090008310E000834170008D02F000818
:1007000000310008F0080008DD080008B008000803
:10071000C4340008F0080008DD080008281C0008A0
:10072000D41B0008AC280008300900087F00000036
:10073000D41B00080C1E000840290008900A00087D
:10074000E0FFFFFF281C0008081C0008F008000854
:100750005507000802CD04CD116055F8042B22F096
:10076000030252F8043B18476D07000855F8040BC4
:10077000006847F8040D55F8042B22F0030252F8E4
:10078000043B18478907000855F8042B57F8040B59
:10079000104347F8040D55F8042B22F0030252F8D9
:1007A000043B1847A907000855F8042B57F8040B19
:1007B000104047F8040D55F8042B22F0030252F8BC
:1007C000043B1847C907000855F8043B57F8040BC9
:1007D000186055F8042B22F0030252F8043B184726
:1007E000E507000857F8043B57F8041B57F8040BBB
:1007F0001A6822EA010200EA010042EA00021A60D5
:1008000055F8042B22F0030252F8043B184700006D
:100810001508000855F8043B55F8044B55F804CB6F
:100820001A6822EA04020CEA040C42EA0C021A607A
:1008300055F8042B22F0030252F8043B184700003D
:100840004508000846F8045D55F8042B22F0030221
:1008500052F8043B184700005D08000857F8040BE5
:1008600000280CBF3568361D55F8042B22F0030212
:1008700052F8043B184700000A0000000000000086
:100880000000000000000000680500105803001080
:1008900070FA00200400001010000020000000008A
:1008A00000000000083F0008330E000800000000B0
:1008B000B5080008074808490E2203680B60001DB0
:1008C000091D521EF9D155F8042B22F0030252F8EB
:1008D000043B1847780800080401001046F8045D3E
:1008E000154655F8042B22F0030252F8043B184732
:1008F000F508000856F8045B55F8042B22F00302B3
:1009000052F8043B1847000001CA47F8040D55F897
:10091000042B22F0030252F8043B184701CA47F89F
:10092000040D55F8042B22F0030252F8043B18473B
:100930003509000855F8040B47F8040D55F8042B49
:1009400022F0030252F8043B184700005109000846
:1009500055F8040B47F8040D55F8042B22F0030258
:1009600052F8043B184700006D09000857F8045B73
:1009700055F8042B22F0030252F8043B18470000FC
:1009800046F8045D4568083047F8040D55F8042B17
:1009900022F0030252F8043B18470000A1090008A6
:1009A000064807490968401A47F8040D55F8042B12
:1009B00022F0030252F8043B1847000010FA00200E
:1009C00024010010C9090008064807490968401AAF
:1009D00047F8040D55F8042B22F0030252F8043BAB
:1009E000184700000401001020010010F109000860
:1009F00057F8043B57F8042B93465A461878844618
:100A0000117848403F2420401DD1521C5B1C1878AF
:100A100011788842F9D08024001B884214D15B1CD5
:100A20001878FF28FBD0083347F8043D01206246C0
:100A300047F8042D47F8040D55F8042B22F0030263
:100A400052F8043B18475B1C187880242042FAD0E7
:100A50001B1D084803401B68002B00D0CDE7002079
:100A600047F8040D55F8042B22F0030252F8043B1A
:100A700018470000FCFFFFFF7D0A00082B68ED18F7
:100A800055F8042B22F0030252F8043B18470000EB
:100A9000950A000857F8040B00283FF4EFAF2D1D0E
:100AA00055F8042B22F0030252F8043B18470000CB
:100AB000B50A0008012374683268944204D0D21841
:100AC0003260A41A7FF4DAAF08362D1D55F8042BD6
:100AD00022F0030252F8043B18470000E10A000824
:100AE00057F8043BFFF7E7BFED0A000857F8040B7F
:100AF00057F8042B46F8042D46F8040D55F8042B3E
:100B000022F0030252F8043B18470000110B0008C2
:100B100057F8040B00787F21084047F8040D55F87A
:100B2000042B22F0030252F8043B1847310B000853
:100B300057F8041B0B4A92460B4B1C68121910788D
:100B4000521C884201D00028F9D15446121B1A7059
:100B500047F8040D55F8042B22F0030252F8043B29
:100B60001847000070FA002008010010710B0008FF
:100B700057F8041B57F8042B10784840107055F8AC
:100B8000042B22F0030252F8043B1847910B000893
:100B90000A21884205D157F8040B0D2047F8040DAF
:100BA00002E00D21884203D100F074F900F07AF9D7
:100BB00055F8042B22F0030252F8043B18470000BA
:100BC000C50B00083868017801290FD0022914D01C
:100BD00001440A78622A1AD0252A18D0642A18D02B
:100BE000232A16D0682A16D0242A14D055F8042BAC
:100BF00022F0030252F8043B184782782E2AE7D1EC
:100C000055F8042B22F0030252F8043B1847022443
:100C100002E00A2400E0102400220A70044A146052
:100C200055F8042B22F0030252F8043B1847000049
:100C300004010010390C000857F8040B57F8041B86
:100C4000A0FB012047F8042D47F8040D55F8042BAC
:100C500022F0030252F8043B18470000610C000820
:100C600057F8040B57F8043B57F8042B002812D010
:100C700093F0000F0FD10146B2FBF0F000FB112200
:100C800047F8042D47F8040D55F8042B22F0030211
:100C900052F8043B18474040401E024647F8042DD6
:100CA00047F8040D55F8042B22F0030252F8043BD8
:100CB00018470000B90C0008044A176855F8042BBF
:100CC00022F0030252F8043B184700001401001000
:100CD000D50C0008044A166855F8042B22F00302CC
:100CE00052F8043B1847000018010010F10C0008EE
:100CF000044A11688C4655F8042B22F0030252F87E
:100D0000043B1847040100100D0D0008044A614619
:100D1000116055F8042B22F0030252F8043B1847E7
:100D20000401001009490A480A4C0160001DA04254
:100D3000FBD3094F094E0FF2280546F8045D55F81C
:100D4000042B22F0030252F8043B18471111111131
:100D50000000002000020120680500105803001068
:100D6000B0080008F0400008AC2D00080031000871
:100D700030090008FB00000024300008300900089A
:100D8000F700000024300008003100084C1900086A
:100D900008CA9F4603B502490868401C086003BDA5
:100DA00000000010A90D000856F8045BBDE83F9C48
:100DB000464953482041524D2020313031302C31AA
:100DC000313030202D2045484F4E2F45484F464664
:100DD0002044656275675372632053544D33324625
:100DE000343037564720444953434F20403136383A
:100DF0004D687A20524D2056312E38202843293212
:100E00003031342D3230313820412D5445414D2080
:100E1000464F525448203A204170722032362032D8
:100E2000303138002061742031343A32373A353568
:100E3000001500206F6B2C20676F20666973682097
:100E4000696E20424153452000000000844E4F4F00
:100E5000D0FFFFFF000000005D0E000855F8042BD6
:100E600022F0030252F8043B18470000874558451A
:100E7000435554C54C0E00087D0E000800F00AF8DA
:100E800000F010F857F8042B22F0030252F8043B4C
:100E9000184700007246024C2168090AFCD310472B
:100EA000004800407246024913240C7010470000AD
:100EB000044800407246024911240C70104700009B
:100EC000044800408242CCFF6C0E00081D09000857
:100ED000200000008255D0FFC40E00081D09000844
:100EE000200100108546454E43C5FFFFD40E000883
:100EF0001D0900082C0100108244D0FFE40E0008F8
:100F00001D0900082401001084424153C5FFFFFF62
:100F1000F80E00081D09000804010010874355520F
:100F200052454ED4080F00081D090008300100107A
:100F30008553544154C5FFFF1C0F00081D090008CC
:100F400010010010834F55D4300F00081D09000810
:100F50000C0100108249CEFF440F00081D09000853
:100F600008010010835041C4540F00081D090008F7
:100F700010FA0020835449C2640F00081D090008BC
:100F800070FA002084484552C5FFFFFF740F000827
:100F9000DD080008000F0008E81D0008F008000840
:100FA00085414C4C4FD4FFFF840F0008DD0800083A
:100FB0009C090008D41B0008D4280008F429000864
:100FC000900A0008080000003C030008000F000819
:100FD000C01D0008F008000887414C49474E45C431
:100FE000A00F0008E90F000857F8040BC01C0549C2
:100FF000084047F8040D55F8042B22F0030252F87C
:10100000043B1847FCFFFFFF85414C4947CEFFFFDB
:10101000D80F0008DD080008900F00085C270008C2
:10102000AC280008541C0008AC1B0008900F0008F6
:10103000E80A000830090008FF000000E41A000870
:10104000541E0008B00A0008ECFFFFFF681B0008F0
:1010500030090008FCFFFFFF0C2B0008000F000800
:10106000301E0008F008000881ACFFFF08100008DF
:10107000DD0800089C090008F4290008900A00080F
:10108000080000003C03000864030008F0080008A2
:101090008243ACFF68100008DD0800089C090008C6
:1010A000F4290008900A0008080000003C0300082A
:1010B000900F0008541E00083C2700085403000845
:1010C000F008000888564152414C4C4FD4FFFFFFB6
:1010D00090100008DD080008C40900086C2700080B
:1010E00038280008D41B0008D4280008F429000878
:1010F000900A00081800000030090008CF3F0008DF
:1011000034170008D02F000850180008DC0E000823
:10111000E81D0008281C00086C270008FC270008B0
:10112000DC0E0008C01D0008F0080008864C415481
:101130004553D4FFC4100008DD080008280F00083C
:10114000E81D0008F0080008834C46C12C11000877
:101150005511000857F8040B083847F8040D55F8E6
:10116000042B22F0030252F8043B1847834346C184
:10117000481100087911000857F8040B001F47F8C0
:10118000040D55F8042B22F0030252F8043B1847D3
:10119000834E46C16C110008DD0800089C01000860
:1011A000D42800083C270008D4280008541C000854
:1011B0000C1E000830090008FF000000D4280008B9
:1011C000900A0008E0FFFFFF30090008FFFFFFFF63
:1011D00018070008F0080008835046C19011000865
:1011E000DD0800083C270008180700089C260008B6
:1011F000541C00080C1E000830090008FF00000005
:10120000D4280008900A0008E4FFFFFF9C010008B2
:10121000AC280008F0080008883F414C49474E457B
:10122000C4FFFFFFD8110008DD08000830090008DE
:10123000030000000C2B0008900A00083C0000008E
:10124000FC0300082E56414C5545204D5553542063
:101250004245204556454E204E4F54204F44442091
:10126000414E44204D554C5449504C45204F46204A
:10127000342120FF50180008F0080008863F45522E
:10128000524FD2FF18120008DD080008281C000881
:10129000900A00081000000018150008780A0008DD
:1012A00008000000081C0008F008000885444947B1
:1012B00049D4FFFF7C120008BD12000857F8042B28
:1012C00057F8040B303813D4092802DDC01F0A2850
:1012D0000EDB90420CDA0246012047F8042D47F855
:1012E000040D55F8042B22F0030252F8043B184772
:1012F000002047F8040D55F8042B22F0030252F8A1
:10130000043B184787454E434C4F53C5AC12000869
:101310001513000857F8040B39680022521E491EA5
:10132000491C521C0B789842FAD047F8042D002B28
:101330000CD11846521C47F8042D47F8040D55F8F7
:10134000042B22F0030252F8043B1847491C521C9C
:101350000B78984201D0002BF8D11046401C47F87A
:10136000042D47F8040D55F8042B22F0030252F81F
:10137000043B1847C180FFFF0413000881130008D5
:1013800056F8045B55F8042B22F0030252F8043B94
:101390001847000084574F52C4FFFFFF7413000822
:1013A000DD0800087C0F00085C0F0008E81D00083D
:1013B000AC280008281C0008101300085C0F000867
:1013C000C01D0008D41B0008D4280008AC1B00086E
:1013D0008C1B0008900F0008541E0008AC28000861
:1013E000900F00089C2600088C1B0008141D0008A4
:1013F0002C270008900F00089C260008681B000896
:10140000AC280008541E0008F0080008864E554D10
:101410004245D2FF94130008DD080008EC0C0008D8
:10142000C00B00082C2700082C270008B01A000861
:10143000541C00089C2600080C1E000830090008F7
:101440002D000000FC2800083C2700080C2B000899
:10145000541C0008AC1B0008AC2800083009000828
:10146000FFFFFFFF54250008301E00084804000855
:10147000541C00080C1E00082C270008D428000863
:10148000900A00086C000000541C00080C1E0008A4
:10149000300900082E000000D4280008900A000837
:1014A00044000000541C00080C1E0008300900080D
:1014B0002C000000FC280008900A0008140000001E
:1014C00030090008FFFFFFFF780A000898FFFFFFC0
:1014D000080D00083C2700083009000813400008E8
:1014E000881200082C270008780A000878FFFFFF00
:1014F000081C0008681B0008900A0008080000008B
:1015000024250008080D0008F008000885455252FF
:101510004FD2FFFF0C140008DD080008900F0008F0
:1015200010170008D02F000834170008D02F00082B
:10153000A42E00083C0F0008E81D0008900A0008CF
:101540004000000090060008E81D0008900A00080E
:101550003000000090060008E81D0008E0110008B7
:1015600050110008E81D0008280F0008301E000870
:1015700090060008E81D0008000F0008301E000853
:101580007C06000850180008C1A7FFFF0C150008D2
:10159000DD080008CC040008C8290008300900084C
:1015A0000540000888120008081C0008441F0008B5
:1015B000F0080008864558504543D4FF88150008B8
:1015C000DD08000810020008FC0100089C26000845
:1015D000D41B0008AC280008D41B00089C26000877
:1015E000C82E0008E80A00086C3000088C0B0008C0
:1015F000541C00083009000809000000FC280008FD
:10160000900A00080C000000081C0008CC0E00081E
:10161000541C00089C010008FC280008D41B00088A
:10162000300900087F000000FC280008342B000867
:10163000900A000850000000081C0008541C000814
:10164000E41A000878260008FC280008541C00084A
:10165000681B00084C270008D4280008AC280008A4
:10166000AC1B0008900A0008100000008801000868
:10167000780A00086C000000A4010008780A00083D
:1016800060000000541C0008300900080D00000034
:10169000FC280008900A00081C000000481B0008F5
:1016A000081C0008CC0E00082C270008780A000847
:1016B00008000000541C0008E41A0008541E00082A
:1016C0003C2700085C0F0008C01D00082C270008FC
:1016D000E41A00089C260008541E00082430000864
:1016E000B00A000804FFFFFFA42E00089C26000893
:1016F00034170008281C000878260008541E00082B
:10170000F008000885434F554ED4FFFFB41500087C
:10171000DD080008541C00089C260008281C00084E
:101720000C1E0008F008000884244C45CEFFFFFF83
:1017300004170008391700083A684040115C094353
:1017400001D0401CFAE747F8040D55F8042B22F0AD
:10175000030252F8043B184786464F524745D4FFD0
:1017600028170008DD08000890150008541C000820
:10177000300900080000020840290008300900086C
:10178000763F000888120008541C00083009000841
:10179000000010084029000830090008933F0008A5
:1017A00088120008541C000850110008AC1B0008E7
:1017B00038110008E011000850110008541C0008FE
:1017C000E81D0008280F0008301E0008541C0008FF
:1017D000E4260008E81D000830090008090900088F
:1017E000FC280008900A00081400000030090008D6
:1017F000FCFFFFFFDC0E0008C01D00088C1B00086A
:10180000FC280008900A0008A8FFFFFF681B0008DA
:10181000E81D0008280F0008301E00089811000875
:10182000000F0008301E0008383A0008083A000887
:10183000F0080008834259C55817000841180008ED
:10184000FFF770BA8541424F52D4FFFF34180008A9
:10185000DD080008B40C0008D00C000810020008D5
:1018600030090008283F000838110008EC0900087A
:10187000900A000810000000081C000874110008FD
:10188000780E00083009000838010010E81D000833
:10189000900A00086C0000003009000804190008D4
:1018A00034170008D02F0008A4300008900A000860
:1018B000F8FFFFFF6C30000830090008430000000B
:1018C000FC280008900A0008E0FFFFFF6C300008C9
:1018D000300900084F000000FC280008900A0008AA
:1018E000C8FFFFFF6C300008300900080D00000041
:1018F000FC280008900A0008B0FFFFFF0031000834
:10190000F0050008204572726F722048616C7420E7
:101910002845484F4E2F45484F464629202D2054F4
:101920006F20434F6E74696E756520547970652021
:10193000434F207468656E20456E7465723A2000CE
:1019400084434F4CC4FFFFFF44180008DD08000823
:1019500008070008C8060008F0050008900D0A46B0
:101960004953482053797374656D3A0D8AFFFFFF20
:1019700040190008832E53C85C190008DD080008D0
:10198000300900081000000024020008F0080008D8
:10199000832E53C474190008DD08000830090008BC
:1019A0000A00000024020008F0080008832E53C239
:1019B00090190008DD0800084C27000824020008E0
:1019C000F0080008822ED3FFAC190008DD080008DB
:1019D0001C030008E81D0008041B0008E42600089A
:1019E000FC280008C8290008900A000868000000C8
:1019F000FC03000805544F533E20FFFF1C03000862
:101A0000E81D0008041B0008E4260008E80A000896
:101A1000E41A0008E81D0008140F0008E81D00087B
:101A2000300900080A000000FC280008900A00089D
:101A300010000000A8020008780A00080800000052
:101A4000C00200082C2F00086C270008DC0A0008E0
:101A5000C0FFFFFFF008000884324455D0FFFFFFAD
:101A6000C4190008691A000838687A6847F8042D14
:101A700047F8040D55F8042B22F0030252F8043BFA
:101A800018470000842D4455D0FFFFFF581A000866
:101A9000DD080008541C0008900A00080800000037
:101AA000541C0008F008000883524FD4841A000820
:101AB000B51A000857F8042B57F8041B57F8040B05
:101AC00047F8041D47F8042D47F8040D55F8042B7A
:101AD00022F0030252F8043B1847000081C9FFFFBF
:101AE000A81A0008E91A0008306847F8040D55F8EC
:101AF000042B22F0030252F8043B1847835350C0D2
:101B0000DC1A0008091B0008384647F8040D55F890
:101B1000042B22F0030252F8043B1847835250C0B2
:101B2000FC1A0008291B0008304647F8040D55F838
:101B3000042B22F0030252F8043B1847854C454120
:101B400056C5FFFF1C1B00084D1B00083268726061
:101B500055F8042B22F0030252F8043B184700000A
:101B60008252BEFF3C1B00086D1B000856F8040B98
:101B700047F8040D55F8042B22F0030252F8043BF9
:101B80001847000081D2FFFF601B0008911B00086E
:101B9000306847F8040D55F8042B22F0030252F880
:101BA000043B1847823ED2FF841B0008B11B00088B
:101BB00057F8041B46F8041D55F8042B22F00302C5
:101BC00052F8043B18470000844F5645D2FFFFFFF0
:101BD000A41B0008D91B000857F8042B57F8040B66
:101BE00047F8040D47F8042D47F8040D55F8042B69
:101BF00022F0030252F8043B184700008444524F7D
:101C0000D0FFFFFFC81B00080D1C00083F1D55F842
:101C1000042B22F0030252F8043B18478453574127
:101C2000D0FFFFFFFC1B00082D1C000857F8042BF9
:101C300057F8040B47F8042D47F8040D55F8042B0A
:101C400022F0030252F8043B18470000834455D0A9
:101C50001C1C0008591C0008386847F8040D55F88A
:101C6000042B22F0030252F8043B1847900D0A534C
:101C70007461636B2053747566663A0D8AFFFFFFCB
:101C80004C1C000887414E44424954D36C1C000848
:101C9000951C000857F8042B57F8041B08681040DF
:101CA000086055F8042B22F0030252F8043B184751
:101CB00087534554424954D3841C0008C11C000872
:101CC00057F8042B57F8041B08681043086055F8B0
:101CD000042B22F0030252F8043B184787434C526E
:101CE000424954D3B01C0008ED1C000857F8042BDF
:101CF00057F8041B08689043086055F8042B22F03D
:101D0000030252F8043B184785434D4F56C5FFFF69
:101D1000DC1C0008191D000857F8041B57F8042B99
:101D200057F8043B002907D018781070491E002985
:101D300002D0521C5B1CF7D155F8042B22F0030291
:101D400052F8043B184700008446494CCCFFFFFF83
:101D5000081D0008591D000857F8040B57F8041B0C
:101D600057F8042B002904D08B181070521C9A428B
:101D7000FBD155F8042B22F0030252F8043B18471C
:101D80008545524153C5FFFF481D0008DD08000886
:101D90002C270008541D0008F008000886424C411A
:101DA0004E4BD3FF801D0008DD080008CC0E000854
:101DB000541D0008F0080008822BA1FF9C1D00089C
:101DC000C51D000857F8041B57F8040B0A68801853
:101DD000086055F8042B22F0030252F8043B184720
:101DE00081C0FFFFB81D0008ED1D000857F8041B57
:101DF000086847F8040D55F8042B22F0030252F846
:101E0000043B18478243C0FFE01D0008111E000874
:101E100057F8041B087847F8040D55F8042B22F0F6
:101E2000030252F8043B184781A1FFFF041E00087B
:101E3000351E000857F8040B57F8041B016055F8CD
:101E4000042B22F0030252F8043B18478243A1FFFF
:101E5000281E0008591E000857F8040B57F8041BE9
:101E6000017055F8042B22F0030252F8043B184786
:101E70009F0D0A5265616420616E64205772697417
:101E800065204D656D6F727920576974683A0D8AC7
:101E90004C1E000881DDFFFF701E0008DD080008F1
:101EA00050070008C000000010010010F0080008F2
:101EB000C1DBFFFF941E0008DD0800085007000882
:101EC0000000000010010010F0080008C95B434F3B
:101ED0004D50494C45DDFFFFB01E0008DD080008ED
:101EE000CC040008C8290008300900082B4000086D
:101EF00088120008081C00087411000870100008FF
:101F0000F0080008C8444C4954455241CCFFFFFF3B
:101F1000CC1E0008DD0800083C0F0008E81D000882
:101F2000900A000810000000281C0008441F000848
:101F3000441F0008F0080008C74C4954455241CCE2
:101F4000041F0008DD0800083C0F0008E81D000819
:101F5000900A000810000000E8040008300900089A
:101F600070100008F00800088223BEFF381F000828
:101F7000DD080008081C0008081C000834030008DD
:101F8000E81D00086C0F0008D41B0008D4280008C6
:101F9000F008000884484F4CC4FFFFFF681F00088A
:101FA000DD08000830090008FFFFFFFF34030008C8
:101FB000C01D000834030008E81D0008541E000876
:101FC000F008000884534947CEFFFFFF941F000824
:101FD000DD080008B01A0008F4290008900A00087B
:101FE00010000000300900082D000000A01F0008AC
:101FF000F00800088223D3FFC41F0008DD08000892
:1020000028200008D41B0008D41B0008342B00082B
:10201000C8290008900A0008E8FFFFFFF008000840
:1020200081A3FFFFF41F0008DD080008140F00085B
:10203000E81D000808050008B01A0008300900086B
:1020400009000000D41B000840290008900A00087D
:10205000100000003009000807000000AC2800084C
:102060003009000830000000AC280008A01F00085C
:10207000F0080008823CA3FF20200008DD080008CB
:102080005007000810FA002044010010F008000872
:1020900085444F4553BEFFFF74200008DD0800084B
:1020A000681B000838110008E0110008541C0008E3
:1020B00074110008300900087F090008281C000876
:1020C000301E0008301E0008F0080008873C42550A
:1020D000494C44D390200008DD080008182300086C
:1020E000F0080008C52B4C4F4FD0FFFFCC20000854
:1020F000DD0800085C270008BC030008E8040008AD
:10210000DC0A000868060008F0080008C44C4F4FBD
:10211000D0FFFFFFE4200008DD0800085C2700086E
:10212000BC030008E8040008B00A000868060008BC
:10213000F0080008C244CFFF0C210008DD080008A9
:10214000E8040008E80A0008900F00085C2700086F
:10215000F0080008C5454E4449C6FFFF3421000879
:10216000DD080008800300084C270008BC030008B5
:10217000900F0008D41B0008D4280008281C000871
:10218000301E0008F0080008C4544845CEFFFFFF89
:1021900054210008DD08000860210008F00800084C
:1021A000C4454C53C5FFFFFF88210008DD08000827
:1021B0004C270008BC030008E8040008780A00085F
:1021C000900F00082C27000870100008281C000839
:1021D0004C270008602100084C270008F008000880
:1021E000C249C6FFA0210008DD080008E804000875
:1021F000900A0008900F00082C27000870100008B3
:102200004C270008F0080008C5554E5449CCFFFF84
:10221000E0210008DD0800083C270008BC03000896
:10222000E8040008900A000868060008F0080008A2
:10223000C541474149CEFFFF08220008DD080008DC
:102240003C270008BC030008E8040008780A0008DE
:1022500068060008F0080008C65245504541D4FF02
:1022600030220008DD080008AC1B0008AC1B000889
:102270003C220008681B0008681B00084C27000867
:10228000D428000860210008F0080008C557484914
:102290004CC5FFFF58220008DD080008E8210008AF
:1022A000C0260008F0080008C542454749CEFFFF98
:1022B0008C220008DD08000880030008900F000849
:1022C0003C270008F0080008970D0A496E736964FE
:1022D0006520436F6C6F6E20574F5244533A0D8AFE
:1022E000A822000889494D4D4544494154C5FFFF86
:1022F000C8220008DD08000838110008300900086D
:10230000400000006C0B0008F008000886435245AE
:102310004154C5FFE4220008DD0800089C090008BC
:10232000300900080F000000D4280008F429000834
:10233000900A0008080000003C030008CC040008D4
:10234000900A000824000000081C000898110008EA
:10235000442F000830090008EF3F00083417000838
:10236000D02F000850180008900F0008541C0008D7
:1023700090060008301E0008541C00080C1E0008BF
:10238000300900081F000000BC2A000854030008A0
:10239000541C000830090008800000006C0B000885
:1023A000900F000830090008800000006C0B000846
:1023B0003C270008000F0008C01D00083811000865
:1023C00070100008280F0008301E0008E8040008FC
:1023D0001D090008900F0008E4260008701000088E
:1023E000F008000888434F4E5354414ED4FFFFFF7E
:1023F0000C230008DD08000808240008F008000885
:1024000083434FCEE4230008DD08000818230008AA
:1024100030090008FCFFFFFF000F0008C01D000886
:10242000701000087C060008F00800088856415229
:102430004941424CC5FFFFFF00240008DD080008A9
:1024400050240008F0080008835641D22C240008CC
:10245000DD0800081823000830090008F8FFFFFF16
:10246000000F0008C01D0008E80400080909000862
:102470003C270008D4100008701000087C060008F3
:10248000F0080008C1BBFFFF48240008DD08000871
:1024900048050008E8040008F0080008B81E000815
:1024A0007C060008F0080008C1BAFFFF8424000879
:1024B000DD080008A0030008340500081823000800
:1024C0009C1E000830090008F8FFFFFF000F0008FD
:1024D000C01D0008E8040008DD080008F008000836
:1024E000960D0A43524541544520574F52445320BC
:1024F000576974683A0D8AFFA82400088444414251
:10250000D3FFFFFFE0240008DD080008541C00088A
:10251000B0060008F008000887444E45474154C5FE
:10252000FC2400082925000857F8040B57F8042B51
:10253000C043D243521C47F8042D47F8040D55F808
:10254000042B22F0030252F8043B1847834450CC7A
:10255000182500081D0900084001001083442ED2F0
:102560004C250008DD080008AC1B0008281C0008EA
:10257000D41B0008082500087C200008FC1F000868
:10258000D01F0008701F0008681B0008D41B00083B
:10259000D4280008F02E0008D02F0008F00800080A
:1025A0008244AEFF5C250008DD0800082C270008E7
:1025B000642500082C2F0008F00800088244ABFFB7
:1025C000A0250008C925000857F8040B57F8041B7C
:1025D00057F8043B57F8042B5218584147F8042D7C
:1025E00047F8040D55F8042B22F0030252F8043B7F
:1025F0001847000084532D3EC4FFFFFFBC25000890
:102600000526000857F8042B4040124300D5401E11
:1026100047F8042D47F8040D55F8042B22F0030267
:1026200052F8043B184700008232AAFFF425000844
:102630003526000857F8040B400047F8040D55F8FC
:10264000042B22F0030252F8043B18478232AFFFFA
:10265000282600085926000857F8040B401047F8B0
:10266000040D55F8042B22F0030252F8043B1847DE
:102670008231ADFF4C2600087D26000857F8040B78
:10268000401E47F8040D55F8042B22F0030252F8BF
:10269000043B18478231ABFF70260008A1260008D2
:1026A00057F8040B401C47F8040D55F8042B22F092
:1026B000030252F8043B18478232ABFF942600080D
:1026C000C526000857F8040B801C47F8040D55F880
:1026D000042B22F0030252F8043B18478234ABFF6C
:1026E000B8260008E926000857F8040B001D47F833
:1026F000040D55F8042B22F0030252F8043B18474E
:102700008234ADFFDC2600080D27000857F8040BC3
:10271000001F47F8040D55F8042B22F0030252F86D
:10272000043B184781B0FFFF002700081D0900087F
:102730000000000081B1FFFF242700081D090008E8
:102740000100000081B2FFFF342700081D090008C6
:102750000200000081B3FFFF442700081D090008A4
:102760000300000081B4FFFF542700081D09000882
:1027700004000000824DAAFF64270008DD0800085D
:10278000641A0008802B0008AC1B0008A42A00086B
:10279000281C0008A42A0008340C0008681B000844
:1027A000B0060008F0080008824DAFFF742700084B
:1027B000DD080008D41B0008AC1B0008AC1B000897
:1027C000082500088C1B0008A42A00085C0C0008DF
:1027D000681B00088C1B0008802B00089806000866
:1027E000281C0008681B000898060008281C000820
:1027F000F008000881AAFFFFA8270008DD080008EC
:102800007C270008081C0008F0080008842F4D4FA2
:10281000C4FFFFFFF4270008DD080008AC1B000818
:1028200000260008681B0008B0270008F008000810
:1028300081AFFFFF0C280008DD08000818280008F9
:10284000281C0008081C0008F0080008834D4FC42D
:1028500030280008DD08000818280008081C0008B7
:10286000F0080008852A2F4D4FC4FFFF4C280008B0
:10287000DD080008AC1B00087C270008681B000866
:10288000B0270008F0080008822AAFFF642800087B
:10289000DD08000870280008281C0008081C000833
:1028A000F008000881ABFFFF88280008B128000865
:1028B00057F8040B57F8041B401847F8040D55F857
:1028C000042B22F0030252F8043B184781ADFFFFAE
:1028D000A4280008D928000857F8040B57F8041B4F
:1028E000081A47F8040D55F8042B22F0030252F899
:1028F000043B184781BDFFFFCC28000801290008D0
:10290000404057F8040B57F8041B401A09D04040C8
:1029100047F8040D55F8042B22F0030252F8043B4B
:102920001847013847F8040D55F8042B22F003022C
:1029300052F8043B1847000081BCFFFFF428000850
:10294000452900084040013857F8041B57F8042B6C
:10295000914200DC404047F8040D55F8042B22F06A
:10296000030252F8043B18478255BCFF382900087F
:10297000DD080008641A0008802B0008F42900080C
:10298000900A000818000000081C0008F42900083C
:10299000C8290008780A00080C000000D4280008A4
:1029A000F4290008F008000881BEFFFF682900082C
:1029B000DD080008281C000840290008F00800086D
:1029C0008230BDFFA8290008CD290008404057F8F3
:1029D000041B002900D1401E47F8040D55F8042BB4
:1029E00022F0030252F8043B184700008230BCFF7B
:1029F000C0290008F929000857F8041B4040013895
:102A0000094300D4404047F8040D55F8042B22F048
:102A1000030252F8043B1847834249CEEC290008D0
:102A2000DD08000850070008020000000401001043
:102A3000F0080008834845D8182A0008DD08000877
:102A4000500700081000000004010010F008000802
:102A500087444543494D41CC342A0008DD0800082D
:102A6000500700080A00000004010010F0080008E8
:102A7000864E45474154C5FF502A0008812A000868
:102A800057F8040BC043401C47F8040D55F8042BBD
:102A900022F0030252F8043B18470000834142D35E
:102AA000702A0008DD080008541C00089806000879
:102AB000F0080008834D49CE9C2A0008DD08000874
:102AC000641A0008B0290008900A000808000000F5
:102AD000281C0008081C0008F0080008834D41D895
:102AE000B42A0008DD080008641A0008402900081C
:102AF000900A000808000000281C0008081C0008B4
:102B0000F008000883414EC4DC2A0008112B00089D
:102B100057F8040B57F8041B084047F8040D55F804
:102B2000042B22F0030252F8043B1847824FD2FFD5
:102B3000042B0008392B000857F8040B57F8041B26
:102B4000084347F8040D55F8042B22F0030252F80D
:102B5000043B1847834E4FD42C2B0008612B0008F0
:102B600057F8040BC04347F8040D55F8042B22F026
:102B7000030252F8043B184783584FD2542B0008E5
:102B8000852B000857F8040B57F8041B484047F8FA
:102B9000040D55F8042B22F0030252F8043B1847A9
:102BA00084535854C8FFFFFF782B0008B12B00084E
:102BB00057F8040B00B247F8040D55F8042B22F027
:102BC000030252F8043B184784535854C2FFFFFFD6
:102BD000A02B0008D92B000857F8040B40B247F887
:102BE000040D55F8042B22F0030252F8043B184759
:102BF00084524556D7FFFFFFC82B0008012C000860
:102C000057F8040B00BA47F8040D55F8042B22F0CE
:102C1000030252F8043B1847834153D2F02B0008BB
:102C2000252C000857F8042B57F8040B104147F8DF
:102C3000040D55F8042B22F0030252F8043B184708
:102C4000834C53D2182C00084D2C000857F8042B45
:102C500057F8040BD04047F8040D55F8042B22F028
:102C6000030252F8043B1847834C53CC402C000815
:102C7000752C000857F8042B57F8040B904047F8C0
:102C8000040D55F8042B22F0030252F8043B1847B8
:102C9000822ED2FF682C0008DD080008AC1B00085B
:102CA00000260008681B000864250008F0080008DA
:102CB000832E52D5902C0008DD080008AC1B0008BC
:102CC0002C2700087C200008FC1F0008701F00084B
:102CD000541C0008681B0008281C0008D4280008A1
:102CE000F02E0008D02F0008F00800088255AEFF33
:102CF000B02C0008DD0800082C270008A8250008D3
:102D0000F008000881BFFFFFEC2C0008DD08000878
:102D1000E81D0008242D0008F008000881AEFFFF20
:102D2000042D0008DD08000800260008A82500087A
:102D3000F0080008822EC2FF1C2D0008DD080008E4
:102D40004C270008D8020008F0080008822EC8FFAF
:102D5000342D0008DD0800083009000810000000CC
:102D6000D8020008F0080008822EC4FF4C2D00088D
:102D7000DD080008300900080A000000D802000839
:102D8000F0080008910D0A4E554D424552205374EB
:102D90007566663A0D8AFFFF682D00088A55415214
:102DA00054335F494E49D4FF842D0008DD080008E4
:102DB0003009000800020120E81D0008C8290008A9
:102DC000900A00081C0000003009000804020120DD
:102DD000E81D0008AC1B0008780A0008100000007D
:102DE0003009000880250000AC1B000830090008ED
:102DF00080DE8002681B00083828000830090008BF
:102E000008480040301E0008F0080008864D59426E
:102E10004155C4FF9C2D0008DD080008500700083C
:102E20000000000000020120300900080402012017
:102E3000301E0008F00800088955415254335F4C99
:102E400053D2FFFF0C2E00084D2E000805490878CC
:102E500047F8040D55F8042B22F0030252F8043B06
:102E600018470000004800408855415254335F52D3
:102E7000D8FFFFFF382E00081D0900080448004055
:102E80008855415254335F54D8FFFFFF682E000825
:102E90001D0900080448004084584F46C6FFFFFF44
:102EA000802E0008A92E0008FDF7F4FFFDF7FAFFB9
:102EB00055F8042B22F0030252F8043B1847000097
:102EC00083584FCE982E0008CD2E0008FDF7E2FF64
:102ED000FDF7F0FF55F8042B22F0030252F8043BF3
:102EE00018470000865350414345D3FFC02E0008C9
:102EF000DD0800082C270008E42A0008901A0008C2
:102F0000900A0008180000002C270008E80A0008B2
:102F10002C2F0008B00A0008F8FFFFFFF008000897
:102F20008553504143C5FFFFE42E0008DD0800082B
:102F3000CC0E000824300008F0080008834944AE95
:102F4000202F0008DD0800081017000830090008CD
:102F50001F0000000C2B0008D02F00082C2F0008A9
:102F6000F0080008C22EA2FF3C2F0008DD08000870
:102F700030090008220000003C0F0008E81D00088E
:102F8000900A00082C000000E8040008FC03000878
:102F9000A0130008900F00080C1E00089C260008D3
:102FA000E40F000854030008780A00081400000029
:102FB000A0130008900F000810170008D02F000879
:102FC000F008000884545950C5FFFFFF642F000823
:102FD000DD080008901A0008900A0008340000007C
:102FE000A42E0008D41B0008AC280008281C0008E8
:102FF000E80A0008E41A00080C0B00082430000856
:10300000B00A0008F0FFFFFF780A0008080000007F
:10301000081C0008F008000884454D49D4FFFFFF54
:10302000C42F00082930000857F8040BFDF732FFC1
:103030000649087006490868401C086055F8042BCA
:1030400022F0030252F8043B1847000004480040F5
:103050000C010010834B45D918300008DD0800082A
:10306000C82E00086C300008F00800087130000815
:10307000074A084B19688909FCD3106847F8040D02
:1030800055F8042B22F0030252F8043B18470000C5
:103090000448004000480040843F4B45D9FFFFFFF3
:1030A00054300008A9300008FDF7F4FEFDF702FFD8
:1030B0004040074B1968890900D3013847F8040DCF
:1030C00055F8042B22F0030252F8043B1847000085
:1030D00000480040834352D398300008DD080008C0
:1030E0002C270008E80A000800310008B00A000890
:1030F000F8FFFFFFF00800088243D2FFD430000839
:10310000DD08000810020008FC030008020D0AFF99
:10311000F00800088C0D0A4649534820494F3A0DE3
:103120008AFFFFFFF83000088B495251535F524528
:1031300053554DC5143100083D31000801F018F910
:1031400055F8042B22F0030252F8043B1847000004
:103150008C495251535F53555350454EC4FFFFFFA6
:10316000283100086931000801F000F955F8042BF6
:1031700022F0030252F8043B184700008F535953C2
:103180005449434B5F4952515F4F46C65031000886
:103190009531000804490520086055F8042B22F0F9
:1031A000030252F8043B184710E000E08E535953D5
:1031B0005449434B5F4952515F4FCEFF7C31000869
:1031C000C531000804490720086055F8042B22F097
:1031D000030252F8043B184710E000E08F0D0A4943
:1031E0004E54455252555054533A0D8AAC31000852
:1031F0008A464C4153485F534156C5FFDC310008B5
:10320000DD08000838110008183B000840290008B4
:10321000900A00082000000000310008FC030008AC
:103220000F4E4F5448494E4720544F205341564566
:10323000F008000800330008E81D00083009000805
:1032400000001008FC280008900A00082800000070
:1032500000310008FC030008144C41535420464C34
:1032600041534820415641494C2055534544FFFFA6
:10327000F008000814100008DC0E0008E81D000823
:1032800010330008301E00083811000818330008F9
:1032900008330008301E000838110008183B0008E9
:1032A000FC280008900A000848000000B437000815
:1032B000183B0008000F0008301E000810330008FB
:1032C000E81D0008DC0E0008301E00080833000866
:1032D000E81D0008280F0008301E0008C43400084C
:1032E00000310008383A0008083A0008F0080008E1
:1032F0003811000844330008780A00089CFFFFFFDB
:103300001D090008040000201D0900080800002015
:103310001D0900080C0000201D33000857F8040B9D
:10332000064A1040064A1268801847F8040D55F8FE
:10333000042B22F0030252F8043B1847FFFF0F0052
:1033400004000020DD080008E0110008541C0008FB
:10335000AC1B000874110008541C0008E81D00088C
:10336000300900087F090008FC280008900A0008BE
:1033700028000000E4260008541C0008541C000823
:10338000E81D000818330008281C0008301E00083B
:10339000780A000800010000541C0008E81D00081D
:1033A000300900081D090008FC280008D41B00088B
:1033B000E81D00083009000809090008FC28000879
:1033C000342B0008900A000810000000081C0008B8
:1033D000780A0008C4000000E4260008541C000815
:1033E000E81D00083009000830090008FC28000822
:1033F000900A000810000000E4260008780A00087F
:10340000D8FFFFFF541C0008E81D00083009000821
:10341000FC030008FC280008900A000820000000B7
:10342000541C0008E42600080C1E0008AC28000804
:10343000E40F0008780A0008A0FFFFFF541C0008F2
:10344000E81D000830090008F0080008FC28000802
:10345000C8290008900A00083C000000541C00081D
:10346000E81D0008183B0008B0290008900A000871
:1034700068FFFFFF541C0008541C0008E81D0008EA
:1034800018330008281C0008301E0008780A0008BD
:1034900048FFFFFF081C0008681B000850110008C7
:1034A000541C0008E81D0008541C0008280F0008E0
:1034B000301E000818330008281C0008301E0008C1
:1034C000F0080008DD0800083009000800000208C4
:1034D000541C00083009000804000020301E0008B9
:1034E000541C0008AC1B0008E81D0008003C000844
:1034F000D4280008900A000810000000681B00088B
:10350000081C0008F00800088C1B000800330008A5
:10351000301E00088C1B000830090008080000005D
:10352000AC280008541C0008E81D0008280F0008FB
:10353000301E0008E4260008E81D0008DC0E000824
:10354000301E000800310008FC0300081741444405
:10355000454420574F5244532046524F4D2041443A
:10356000445220FF8C1B0008542D0008681B0008E3
:10357000E4260008E81D0008780A000854FFFFFF51
:10358000DD080008541C0008AC280008AC1B00082B
:10359000541C0008E81D00089C260008900A00083A
:1035A0003800000000310008FC03000817455241B4
:1035B0005345442042414420464C41534820504109
:1035C00047452020542D0008081C0008681B0008EF
:1035D000081C0008F0080008E4260008541C000835
:1035E000541C00088C1B0008281C0008D428000864
:1035F000900A00080C000000780A000898FFFFFFFE
:1036000000310008FC0300080E464C41534820508E
:10361000414745204F4B20FFD4280008542D000877
:10362000681B0008081C0008F00800088C464C4184
:1036300053485F464F524745D4FFFFFFF031000823
:10364000DD080008FC0300081754414B4553204196
:10365000424F55542036205345434F4E445321206A
:10366000643100083839000818390008500700088C
:103670002A020100103C02401839000850070008D7
:1036800032020100103C02401839000850070008BF
:103690003A020100103C02401839000850070008A7
:1036A00042020100103C024018390008500700088F
:1036B0004A020100103C0240183900085007000877
:1036C00052020100103C024018390008500700085F
:1036D0005A020100103C024018390008583900080D
:1036E000383100082C3B000838110008B0290008C8
:1036F000900A000810000000A03E0008780A0008A8
:103700001C00000030090008083F0008183B0008B2
:10371000E011000850110008301E00085007000892
:1037200000000208040000203009000811111111E6
:10373000541C000808330008301E0008103300082D
:10374000301E0008C434000800310008383A000870
:10375000083A0008F00800085D37000857F8040B25
:1037600057F8041B064A50F8044B42F8044B8842B1
:10377000F9D155F8042B22F0030252F8043B184704
:10378000D0FE002030090008D0FE0020780E00088E
:10379000F0080008DD080008300900086C3900084E
:1037A00030090008C038000858370008843700087E
:1037B000F0080008DD080008643100083839000806
:1037C000183900085007000801020000103C0240B0
:1037D00000330008E81D0008AC1B00083009000891
:1037E0001000000000330008C01D0008900F000802
:1037F000AC1B0008183B0008541C0008E81D00081A
:1038000000330008E81D0008301E000818390008C1
:103810006C27000800330008C01D0008E4260008DB
:10382000541C00088C1B0008D4280008900A0008CB
:103830000C000000780A0008C0FFFFFF681B0008AA
:10384000081C0008081C00083009000800000020BF
:10385000E81D00088C1B0008301E000818390008FD
:1038600000330008E81D00088C1B0008E42600084F
:10387000301E00081839000808330008E81D000849
:103880008C1B00089C010008AC280008301E0008B2
:103890001839000810330008E81D0008681B0008EC
:1038A000300900080C000000AC280008301E000899
:1038B000183900085839000838310008F0080008A5
:1038C000DD08000840360008643100083839000877
:1038D000183900085007000801020000103C02409F
:1038E000500700080000020804000020300900080A
:1038F00010000000000F0008C01D0008580E00084E
:10390000B4370008580E000840360008583900083F
:1039100038310008F00800081D390008054908681A
:103920000004FCD255F8042B22F0030252F8043BA9
:10393000184700000C3C0240DD0800085007000852
:1039400023016745043C024050070008AB89EFCDD6
:10395000043C0240F0080008DD0800085007000899
:1039600000000080103C0240F008000884504F46E0
:10397000C6FFFFFF2C360008DD08000850070008CE
:103980000000000034010010F008000883504FCE02
:103990006C390008DD08000850070008330E0008E5
:1039A00034010010F008000881D0FFFF8C390008B6
:1039B0001D090008340100108545484F46C6FFFF29
:1039C000A8390008DD0800082C2700083009000885
:1039D00038010010301E0008F00800088445484FE8
:1039E000CEFFFFFFB8390008DD0800083C270008BB
:1039F0003009000838010010301E0008F0080008E7
:103A0000832E44D3DC390008DD0800089C09000837
:103A1000EC0C0008702D0008080D000830090008A3
:103A2000443F000834170008D02F0008F0080008B1
:103A3000832E56D3003A0008DD080008C4090008A8
:103A4000EC0C00086C27000838280008702D0008CE
:103A5000080D000830090008393F00083417000835
:103A6000D02F0008F00800088444554DD0FFFFFF18
:103A7000303A0008DD080008D41B000828120008AE
:103A8000EC0C00083C2A00082C270008E80A000873
:103A900000310008541C0008300900080A0000002A
:103AA000B82C00086C2700082C270008E80A00083A
:103AB000541C0008E81D0008300900080E00000032
:103AC000B82C0008E4260008B00A0008E4FFFFFF55
:103AD000A4300008900A000808000000481B0008F5
:103AE000B00A0008ACFFFFFF081C00080031000806
:103AF000080D0008F00800088556424153C5FFFF35
:103B0000683A00081D09000804000010854442417D
:103B100053C5FFFFF83A00081D09000810000020F7
:103B20008552424153C5FFFF0C3B00081D090008A8
:103B30000000002083434CD3203B0008DD08000830
:103B4000FC030008041B5B324AFFFFFFFC03000874
:103B5000041B5B3B48FFFFFF00310008F008000832
:103B6000C1A8FFFF343B0008DD0800083009000849
:103B7000290000002C0B0008C8290008900A000842
:103B80003400000000310008300900081000000077
:103B900024300008240400083009000871FA0020CD
:103BA0000C1E0008900A000810000000780A0008A7
:103BB000BCFFFFFFF008000830090008563F00086E
:103BC00034170008D02F0008F0080008C1DCFFFF00
:103BD000603B0008DD0800082C2700087C0F000867
:103BE0005C0F0008E81D0008AC280008541E0008FF
:103BF000F008000886535953434CCBFFCC3B0008D8
:103C0000053C00080549086847F8040D55F8042BE1
:103C100022F0030252F8043B184700000000002085
:103C20008553544354D2FFFFF43B00081D0900089C
:103C3000000000108544454C41D9FFFF203C00089E
:103C4000453C000857F8041B57F8040B0C4CC043C4
:103C5000401C20600B4A11600B4A1160002806D0FE
:103C60000A4A10680721116021680029FCD1106000
:103C700055F8042B22F0030252F8043B18470000C9
:103C80000000001014E000E018E000E010E000E0A8
:103C9000824DD3FF343C0008DD08000830090008DD
:103CA0003F900200403C0008F008000887574F5240
:103CB000444341D4903C0008DD080008900F000800
:103CC000AC1B00082C2700089810000830090008D9
:103CD0000D00000098100008900F0008300900083F
:103CE0000D000000A0130008541C00080C1E000862
:103CF000300900080A000000B01A0008541E00082D
:103D0000541C00089C260008AC0F0008300900086D
:103D100084000000AC2800088C1B0008541E00081A
:103D2000300900080D000000981000083009000854
:103D30008A000000981000081410000838110008CC
:103D400070100008681B00083009000830010010DE
:103D5000301E0008F008000885574F5244D3FFFF7B
:103D6000AC3C0008DD0800085C270008F02E0008C5
:103D700038110008A42E00082C270008D41B0008C6
:103D80009C2600080C1E0008300900080D000000E9
:103D9000FC280008C8290008900A00081C00000040
:103DA000081C0008541C0008E0110008501100080D
:103DB000D41B0008D42800084C0F0008E81D000898
:103DC000AC280008300900084A000000B0290008AB
:103DD000900A000810000000003100085C2700086D
:103DE000F02E0008541C0008F00E0008E81D000822
:103DF00040290008900A00080C000000780A00081A
:103E000054000000541C0008442F00084C270008F0
:103E1000F02E0008541C00089C2600080C1E000808
:103E2000300900080D000000FC280008900A000876
:103E30000800000010020008E011000850110008FE
:103E4000E81D0008541C0008C8290008900A000852
:103E500028FFFFFF081C000800310008F0080008D8
:103E6000874D59574F5244D3583D0008DD0800088C
:103E700050070008000002082C010010643D0008F3
:103E800050070008000000002C010010F008000896
:103E900089464953485F4F4E4CD9FFFF603E0008AA
:103EA000A53E000809490A4C21600A4C21600A49D4
:103EB0000A4C21600A4C21600A490B4C216055F8DC
:103EC000042B22F0030252F8043B1847083F000875
:103ED0003001001008000020040000102001001034
:103EE0000C000020100000202401001084464953DB
:103EF000C8FFFFFF903E0008DD080008C43400083A
:103F0000C8060008F0080008990D0A4649534820E1
:103F10005265666572656E6365204D6F64656C3AC7
:103F20000D8AFFFFEC3E00080352554E2000203F53
:103F30002000203C43523E20005641522043454C35
:103F40004C53200044494354494F4E41525920425A
:103F500059544553200020434F4D4D454E54204C5D
:103F6000494E452043414E4E4F5420424520454D39
:103F70005054592015002043414E5420464F52477B
:103F80004554204649534820494E20464C41534809
:103F900020150020494E20464C415348202D2053E7
:103FA000454520464C4153485F464F5247455420B3
:103FB00015002044494354494F4E4152592046551B
:103FC0004C4C202D20534545202E445320150020D5
:103FD00052414D20564152205350414345204655B1
:103FE0004C4C202D20534545202E565320150020A3
:103FF000495320414C524541445920444546494E7D
:104000004544201500203F204E4F5420574F524426
:10401000201500203F204E4F5420574F5244204F30
:1040200052204E554D4245522015002043415553D4
:104030004544204120535441434B204552524F5256
:1040400020150020535441434B204552524F5220DB
:104050005748494C4520455845435554494E4720FB
:104060004F5220434F4D50494C494E472015002098
:104070004552524F52202D204E4F5420434F4D5009
:10408000494C494E47201500204552524F52202D91
:10409000204558454355544544205748494C4520F0
:1040A000434F4D50494C494E47201500DD0800084C
:1040B0005007000805070000003C0240F008000817
:1040C000C540000840F20004C2F201044FF00003B2
:1040D0004FF0800C53F8042B44F8042BBCF1010C76
:1040E000F8D155F8042B22F0030252F8043B18478C
:1040F000DD080008C040000850070008000001204B
:1041000008ED00E068070008003802408407000856
:1041100001000000C40700080038024050070008F2
:10412000000000000838024068070008003802401C
:10413000A4070008FFFFF6FEC4070008003802408D
:1041400050070008103000240438024068070008B7
:1041500000380240A4070008FFFFFBFFC407000867
:104160000038024050070008000000000C380240F0
:1041700068070008003802408407000800000100BA
:10418000C40700080038024040080008680700081B
:1041900000380240A4070008000002005808000888
:1041A000680700084038024084070008000000103B
:1041B000C40700084038024068070008007000404B
:1041C0008407000800400000C40700080070004099
:1041D00030090008083802403009000800000000DB
:1041E000BC1C0008300900080838024030090008EB
:1041F00000800000BC1C000830090008083802409C
:104200003009000800140000BC1C0008500700081A
:10421000085440070438024068070008003802408C
:104220008407000800000001C407000800380240AD
:10423000400800086807000800380240A40700088A
:104240000000000258080008AC4000086807000899
:1042500008380240A4070008FCFFFFFFC40700085D
:104260000838024068070008083802408407000840
:1042700002000000C4070008083802404008000897
:104280006807000808380240A40700080C00000076
:104290003009000808000000FC2800085808000841
:1042A00050070008003000508438024068070008BA
:1042B000003802408407000800000004C40700081A
:1042C0000038024040080008680700080038024033
:1042D000A40700080000000858080008500700085C
:1042E000007A030A0000002030090008303802403C
:1042F0003009000887000000BC1C000830090008D5
:10430000403802403009000800000400BC1C0008CE
:104310005007000800770000240802401008000839
:10432000000802400300F0000100A0005007000850
:104330000C2000000C480040500700080700000057
:1043400010E000E0F0080008BFF34F8F0548016857
:1043500011F4E0610448014302480160BFF34F8F4C
:10436000FEE700000CED00E00400FA0572B67047AD
:1043700062B6704780B5FFF7E7FF01BD4EF6885182
:10438000CEF20001086840F470000860BFF34F8F60
:10439000BFF36F8F4FF00070E1EE100A704700001E
:1043A000FCF7C0BCFFF7FEBFFFF7FEBFFFF7FEBF85
:1043B000FFF7FEBFFFF7FEBFFFF7FEBFFFF7FEBF31
:1043C000FCF7E8BCFFF7FEBFFFF7FEBFFFF7FEBF3D
:1043D000FFF7FEBFFFF7FEBFFFF7FEBFFFF7FEBF11
:1043E000FFF7FEBFFFF7FEBFFFF7FEBFFFF7FEBF01
:1043F000FFF7FEBFFFF7FEBFFFF7FEBFFFF7FEBFF1
:10440000FFF7FEBFFFF7FEBFFFF7FEBFFFF7FEBFE0
:10441000FFF7FEBFFFF7FEBFFFF7FEBFFFF7FEBFD0
:10442000FFF7FEBFFFF7FEBFFFF7FEBFFFF7FEBFC0
:10443000FFF7FEBFFFF7FEBFFFF7FEBFFFF7FEBFB0
:10444000FFF7FEBFFFF7FEBFFFF7FEBFFFF7FEBFA0
:10445000FFF7FEBFFFF7FEBFFFF7FEBFFFF7FEBF90
:10446000FFF7FEBFFFF7FEBFFFF7FEBFFFF7FEBF80
:10447000FFF7FEBFFFF7FEBFFFF7FEBFFFF7FEBF70
:10448000FFF7FEBFFFF7FEBFFFF7FEBFFFF7FEBF60
:10449000FFF7FEBFFFF7FEBFFFF7FEBFFFF7FEBF50
:1044A000FFF7FEBFFFF7FEBFFFF7FEBFFFF7FEBF40
:1044B000FFF7FEBFFFF7FEBFFFF7FEBFFFF7FEBF30
:1044C000FFF7FEBFFFF7FEBFFFF7FEBFFFF7FEBF20
:1044D000FFF7FEBFFFF7FEBFFFF7FEBFFFF7FEBF10
:1044E000FFF7FEBFFFF7FEBFFFF7FEBFFFF7FEBF00
:1044F000FFF7FEBFFFF7FEBFFFF7FEBFFFF7FEBFF0
:0C450000FFF7FEBFFFF7FEBFFFF7FEBF96
:0400000500000000F7
:00000001FF
